:1000000029C00000CDC30000F4C300001BC40000E1
:100010003CC0000066C4000038C0000036C00000CC
:1000200034C0000032C0000002C50000D7C4000088
:100030002CC000002AC0000028C0000026C000001C
:1000400024C0000022C0000020C000001EC000002C
:100050001CC0000011241FBECFE5D8E0DEBFCDBF1D
:1000600010E0A0E6B0E0E2EDFAE002C005900D92EB
:10007000A236B107D9F720E0A2E6B0E001C01D9298
:10008000AA37B207E1F7D3D122C5BACF10927900CF
:10009000089580917900811103C081E080937900F7
:1000A000089580916800909169000196909369008D
:1000B0008093680083342FE0920731F480EC8CD475
:1000C00083D186E034C10895883B9B4031F48DD1C3
:1000D00086E04BD182E0809379000895809164009E
:1000E0009091650001969093650080936400823A38
:1000F00027E0920741F480EE6FD480E0F7D075D10D
:1001000083E015C10895883E934029F483E02DD102
:1001100083E0809379000895809166009091670054
:1001200001969093670080936600873C2DE29207CA
:1001300041F480E451D482E3D9D046D186E0F7C0BF
:100140000895843921E1920721F44FD186E00DC151
:100150000895883823E1920731F458D186E005D11B
:1001600082E0E5C008958C37954141F43ED182E0AC
:10017000FCD083E0DCD084E0809379000895809106
:1001800062009091630001969093630080936200F7
:1001900085382EE1920741F480E81ED48EE1A6D086
:1001A00013D185E0C4C00895883B2BE0920721F469
:1001B0001CD185E0DAC008958C3A2DE0920731F425
:1001C00025D185E0D2D082E0B2C00895803A9F4028
:1001D00041F40BD182E0C9D083E0A9D083E08093C1
:1001E0007900089586E085D085E083D082E081D0D3
:1001F00083E07FD083E04FD082E04DD0D4D0CFD306
:1002000073D046E450E061E080E058D049E450E02B
:1002100061E081E053C00895809179008230E1F07F
:1002200028F4882341F0813081F008958330F1F083
:10023000843039F10895D9D086E097D085E095D003
:1002400082E093D083E091C0089582E080937900AA
:1002500081E590E0BAC3089583E0809379008CE84B
:1002600090E0B3D384E080936000089580916000B3
:10027000809379008EE690E0A8D38EE690E0A5C347
:1002800008958FEB90E0A1D383E08093790082E022
:10029000809360000895823049F0833071F440E02B
:1002A00063E0C8D063E083E0B7C1089540E062E056
:1002B00083E0C0D062E083E0AFC108950F931F9345
:1002C000CF93C82F8A01DCD1811108C0B8018C2FCF
:1002D0004ED291E0811103C090E001C091E0892FDE
:1002E000CF911F910F910895D6C20895E4D2D9C23B
:1002F0000895833091F018F48230A1F0089585308C
:1003000039F0863099F441E066E080E093C00895CA
:1003100041E065E080E08EC0089541E063E080E068
:1003200089C0089541E062E080E084C00895833090
:1003300091F018F48230A1F00895853039F08630BC
:1003400099F441E066E080E0EEC0089541E065E0A8
:1003500080E0E9C0089541E063E080E0E4C00895F2
:1003600041E062E080E0DFC00895833091F018F44E
:100370008230A1F00895853039F0863099F440E05C
:1003800066E080E0D0C0089540E065E080E0CBC04A
:10039000089540E063E080E0C6C0089540E062E078
:1003A00080E0C1C0089541E060E080E043D041E0DA
:1003B00061E080E03FD041E060E082E03BD041E09E
:1003C00061E082E037C0089540E060E080E0ABD0BB
:1003D00041E061E080E0A7D040E060E082E0A3D0AF
:1003E00041E061E082E09FC0089540E060E080E08D
:1003F0009AD040E061E080E096D040E060E082E0AA
:1004000092D040E061E082E08EC0089541E060E07B
:1004100080E089D040E061E080E085D040E060E0AD
:1004200082E081D040E061E082E07DC00895DADEC4
:10043000F3DEFECF813019F130F08230E1F183300C
:1004400009F455C00895442319F0413069F0089526
:100450002AB381E090E002C0880F991F6A95E2F705
:10046000809582238ABB08952AB381E090E002C080
:10047000880F991F6A95E2F7822B8ABB089544235F
:1004800019F0413069F0089527B381E090E002C08F
:10049000880F991F6A95E2F78095822387BB08959C
:1004A00027B381E090E002C0880F991F6A95E2F7B8
:1004B000822B87BB0895442319F0413069F00895D9
:1004C00024B381E090E002C0880F991F6A95E2F79B
:1004D0008095822384BB089524B381E090E002C01C
:1004E000880F991F6A95E2F7822B84BB08954423F5
:1004F00019F0413069F0089521B381E090E002C025
:10050000880F991F6A95E2F78095822381BB089531
:1005100021B381E090E002C0880F991F6A95E2F74D
:10052000822B81BB0895813019F130F08230E1F1E6
:10053000833009F455C00895442319F0413069F01F
:1005400008952BB381E090E002C0880F991F6A954F
:10055000E2F7809582238BBB08952BB381E090E076
:1005600002C0880F991F6A95E2F7822B8BBB089512
:10057000442319F0413069F0089528B381E090E0F8
:1005800002C0880F991F6A95E2F78095822388BB85
:10059000089528B381E090E002C0880F991F6A9502
:1005A000E2F7822B88BB0895442319F0413069F0AB
:1005B000089525B381E090E002C0880F991F6A95E5
:1005C000E2F78095822385BB089525B381E090E012
:1005D00002C0880F991F6A95E2F7822B85BB0895A8
:1005E000442319F0413069F0089522B381E090E08E
:1005F00002C0880F991F6A95E2F78095822382BB1B
:10060000089522B381E090E002C0880F991F6A9597
:10061000E2F7822B82BB0895813089F028F0823086
:10062000C9F0833011F108952BB381E090E002C04E
:10063000880F991F6A95E2F7822B8BBB089528B328
:1006400081E090E002C0880F991F6A95E2F7822B43
:1006500088BB089525B381E090E002C0880F991F00
:100660006A95E2F7822B85BB089522B381E090E082
:1006700002C0880F991F6A95E2F7822B82BB08950A
:100680007894813089F120F0823009F459C06CC02F
:10069000611107C085B78E7F85BF85B78D7F85BF08
:1006A0001EC0613039F485B78E7F85BF85B7826003
:1006B00085BF15C0623039F485B7816085BF85B7C5
:1006C000826085BF0CC0633039F485B7816085BF17
:1006D00085B78D7F85BF03C0F89481E008958BB7FF
:1006E00080648BBF80E00895611107C085B78B7F60
:1006F00085BF85B7877F85BF1EC0613039F485B758
:100700008B7F85BF85B7886085BF15C0623039F49F
:1007100085B7846085BF85B7886085BF0CC06330AE
:1007200039F485B7846085BF85B7877F85BF03C0EF
:10073000F89481E008958BB780688BBF80E00895BE
:10074000613021F484B78F7B84BF09C0623021F40B
:1007500084B7806484BF03C0F89481E008958BB7A8
:1007600080628BBF80E00895F89481E00895811144
:1007700005C070936F0060936E000895813031F46E
:1007800070936D0060936C0080E00895823031F4C6
:1007900070936B0060936A0080E0089581E0089593
:1007A0001F920F920FB60F9211242F933F934F93E6
:1007B0005F936F937F938F939F93AF93BF93EF93C9
:1007C000FF93E0916E00F0916F00309709F009956A
:1007D000FF91EF91BF91AF919F918F917F916F9119
:1007E0005F914F913F912F910F900FBE0F901F90EF
:1007F00018951F920F920FB60F9211242F933F93CB
:100800004F935F936F937F938F939F93AF93BF9318
:10081000EF93FF93E0916C00F0916D00309709F039
:100820000995FF91EF91BF91AF919F918F917F912A
:100830006F915F914F913F912F910F900FBE0F904D
:100840001F9018951F920F920FB60F9211242F939D
:100850003F934F935F936F937F938F939F93AF9348
:10086000BF93EF93FF93E0916A00F0916B00309794
:1008700009F00995FF91EF91BF91AF919F918F91F1
:100880007F916F915F914F913F912F910F900FBE8C
:100890000F901F90189515BC789489B7806489BF14
:1008A000089585B5816085BD85B5826085BD85B5B6
:1008B000846085BD0895CF93C82F41E064E080E057
:1008C000B9DD41E064E082E0B5DD9C2F80E064E6C4
:1008D00070E0D6D0615060937000619564BDCF9197
:1008E00008951F920F920FB60F9211242F933F93EA
:1008F0004F935F936F937F938F939F93AF93BF9328
:10090000EF93FF938091710090917200A09173001A
:10091000B09174000097A105B105C1F440E064E016
:1009200080E001DE40E064E082E0FDDD81E090E017
:10093000A0E0B0E08093710090937200A0937300E8
:10094000B09374008091700084BD18C00197A10518
:10095000B105A1F441E064E080E0E5DD41E064E060
:1009600082E0E1DD1092710010927200109273002B
:100970001092740080917000819584BDFF91EF9179
:10098000BF91AF919F918F917F916F915F914F91A7
:100990003F912F910F900FBE0F901F90189583B726
:1009A000877F83BF83B78F7B83BF8FB780688FBFFD
:1009B00089B7816089BF89B78D7F89BF83B7887FF9
:1009C00083BF83B7826083BF0895009721F090931F
:1009D000780080937700089582BF08951F920F9248
:1009E0000FB60F9211242F933F934F935F936F9302
:1009F0007F938F939F93AF93BF93EF93FF93E09178
:100A00007700F0917800309709F00995FF91EF9108
:100A1000BF91AF919F918F917F916F915F914F9116
:100A20003F912F910F900FBE0F901F9018951F921E
:100A30000F920FB60F9211242F933F934F935F9312
:100A40006F937F938F939F93AF93BF93EF93FF9396
:100A5000E0917500F0917600309709F00995FF91CB
:100A6000EF91BF91AF919F918F917F916F915F9126
:100A70004F913F912F910F900FBE0F901F9018959F
:100A800097FB072E16F4009406D077FD08D00BD004
:100A900007FC05D03EF4909581959F4F0895709581
:100AA00061957F4F0895AA1BBB1B51E107C0AA1F88
:100AB000BB1FA617B70710F0A61BB70B881F991FFF
:100AC0005A95A9F780959095BC01CD010895F894A9
:020AD000FFCF56
:020AD200020020
:00000001FF
